{
    "contractName": "USElection",
    "abi": [
        {
            "anonymous": false,
            "inputs": [
                {
                    "indexed": false,
                    "internalType": "uint256",
                    "name": "winner",
                    "type": "uint256"
                }
            ],
            "name": "LogElectionEnded",
            "type": "event"
        },
        {
            "anonymous": false,
            "inputs": [
                {
                    "indexed": false,
                    "internalType": "uint8",
                    "name": "winner",
                    "type": "uint8"
                },
                {
                    "indexed": false,
                    "internalType": "uint8",
                    "name": "stateSeats",
                    "type": "uint8"
                },
                {
                    "indexed": false,
                    "internalType": "string",
                    "name": "state",
                    "type": "string"
                }
            ],
            "name": "LogStateResult",
            "type": "event"
        },
        {
            "inputs": [],
            "name": "BIDEN",
            "outputs": [
                {
                    "internalType": "uint8",
                    "name": "",
                    "type": "uint8"
                }
            ],
            "stateMutability": "view",
            "type": "function"
        },
        {
            "inputs": [],
            "name": "TRUMP",
            "outputs": [
                {
                    "internalType": "uint8",
                    "name": "",
                    "type": "uint8"
                }
            ],
            "stateMutability": "view",
            "type": "function"
        },
        {
            "inputs": [],
            "name": "electionEnded",
            "outputs": [
                {
                    "internalType": "bool",
                    "name": "",
                    "type": "bool"
                }
            ],
            "stateMutability": "view",
            "type": "function"
        },
        {
            "inputs": [
                {
                    "internalType": "string",
                    "name": "",
                    "type": "string"
                }
            ],
            "name": "resultsSubmitted",
            "outputs": [
                {
                    "internalType": "bool",
                    "name": "",
                    "type": "bool"
                }
            ],
            "stateMutability": "view",
            "type": "function"
        },
        {
            "inputs": [
                {
                    "internalType": "uint8",
                    "name": "",
                    "type": "uint8"
                }
            ],
            "name": "seats",
            "outputs": [
                {
                    "internalType": "uint8",
                    "name": "",
                    "type": "uint8"
                }
            ],
            "stateMutability": "view",
            "type": "function"
        },
        {
            "inputs": [
                {
                    "components": [
                        {
                            "internalType": "string",
                            "name": "name",
                            "type": "string"
                        },
                        {
                            "internalType": "uint256",
                            "name": "votesBiden",
                            "type": "uint256"
                        },
                        {
                            "internalType": "uint256",
                            "name": "votesTrump",
                            "type": "uint256"
                        },
                        {
                            "internalType": "uint8",
                            "name": "stateSeats",
                            "type": "uint8"
                        }
                    ],
                    "internalType": "struct USElection.StateResult",
                    "name": "result",
                    "type": "tuple"
                }
            ],
            "name": "submitStateResult",
            "outputs": [],
            "stateMutability": "nonpayable",
            "type": "function"
        },
        {
            "inputs": [],
            "name": "currentLeader",
            "outputs": [
                {
                    "internalType": "uint8",
                    "name": "",
                    "type": "uint8"
                }
            ],
            "stateMutability": "view",
            "type": "function"
        },
        {
            "inputs": [],
            "name": "endElection",
            "outputs": [],
            "stateMutability": "nonpayable",
            "type": "function"
        }
    ],
    "bytecode": "0x608060405234801561001057600080fd5b50610b65806100206000396000f3fe608060405234801561001057600080fd5b50600436106100885760003560e01c8063713d87c51161005b578063713d87c514610103578063ac4bd53a14610133578063c94ca9e314610151578063e494a8831461016f57610088565b80632d78d8e51461008d57806337ad98ec146100ab57806359f78468146100db57806369b36bd4146100e5575b600080fd5b61009561018b565b6040516100a291906109a6565b60405180910390f35b6100c560048036038101906100c09190610687565b610190565b6040516100d291906108f0565b60405180910390f35b6100e36101c6565b005b6100ed61026e565b6040516100fa91906109a6565b60405180910390f35b61011d60048036038101906101189190610709565b610273565b60405161012a91906109a6565b60405180910390f35b61013b610293565b60405161014891906109a6565b60405180910390f35b610159610367565b60405161016691906108f0565b60405180910390f35b610189600480360381019061018491906106c8565b610378565b005b600281565b6002818051602081018201805184825260208301602085012081835280955050505050506000915054906101000a900460ff1681565b60008054906101000a900460ff1615610214576040517f08c379a000000000000000000000000000000000000000000000000000000000815260040161020b9061092b565b60405180910390fd5b60016000806101000a81548160ff0219169083151502179055507faacb23683ec1a0e9b52f9a6264edf58ad322ac62079d65ea7363a2d400f439f4610257610293565b604051610264919061098b565b60405180910390a1565b600181565b60016020528060005260406000206000915054906101000a900460ff1681565b600060016000600260ff1660ff16815260200190815260200160002060009054906101000a900460ff1660ff1660016000600160ff1660ff16815260200190815260200160002060009054906101000a900460ff1660ff1611156102fa5760019050610364565b60016000600160ff1660ff16815260200190815260200160002060009054906101000a900460ff1660ff1660016000600260ff1660ff16815260200190815260200160002060009054906101000a900460ff1660ff16111561035f5760029050610364565b600090505b90565b60008054906101000a900460ff1681565b60008054906101000a900460ff16156103c6576040517f08c379a00000000000000000000000000000000000000000000000000000000081526004016103bd9061092b565b60405180910390fd5b60008160600160208101906103db9190610709565b60ff161161041e576040517f08c379a00000000000000000000000000000000000000000000000000000000081526004016104159061096b565b60405180910390fd5b806040013581602001351415610469576040517f08c379a00000000000000000000000000000000000000000000000000000000081526004016104609061094b565b60405180910390fd5b600281806000019061047b9190610a01565b6040516104899291906108d7565b908152602001604051809103902060009054906101000a900460ff16156104e5576040517f08c379a00000000000000000000000000000000000000000000000000000000081526004016104dc9061090b565b60405180910390fd5b60008160400135826020013511156105005760019050610505565b600290505b8160600160208101906105189190610709565b600160008360ff1660ff16815260200190815260200160002060008282829054906101000a900460ff160192506101000a81548160ff021916908360ff1602179055506001600283806000019061056f9190610a01565b60405161057d9291906108d7565b908152602001604051809103902060006101000a81548160ff0219169083151502179055507fa2e71fe38f1afa3762cf9d2ea7bb6a4d272a90fd6f9392f3acedd3b542046b46818360600160208101906105d79190610709565b8480600001906105e79190610a01565b6040516105f794939291906109c1565b60405180910390a15050565b600082601f83011261061457600080fd5b813561062761062282610a85565b610a58565b9150808252602083016020830185838301111561064357600080fd5b61064e838284610af8565b50505092915050565b60006080828403121561066957600080fd5b81905092915050565b60008135905061068181610b18565b92915050565b60006020828403121561069957600080fd5b600082013567ffffffffffffffff8111156106b357600080fd5b6106bf84828501610603565b91505092915050565b6000602082840312156106da57600080fd5b600082013567ffffffffffffffff8111156106f457600080fd5b61070084828501610657565b91505092915050565b60006020828403121561071b57600080fd5b600061072984828501610672565b91505092915050565b61073b81610acd565b82525050565b600061074d8385610ab1565b935061075a838584610af8565b61076383610b07565b840190509392505050565b600061077a8385610ac2565b9350610787838584610af8565b82840190509392505050565b60006107a0602883610ab1565b91507f5468697320737461746520726573756c742077617320616c726561647920737560008301527f626d6974746564210000000000000000000000000000000000000000000000006020830152604082019050919050565b6000610806601e83610ab1565b91507f54686520656c656374696f6e2068617320656e64656420616c726561647900006000830152602082019050919050565b6000610846601583610ab1565b91507f54686572652063616e6e6f7420626520612074696500000000000000000000006000830152602082019050919050565b6000610886602083610ab1565b91507f537461746573206d7573742068617665206174206c65617374203120736561746000830152602082019050919050565b6108c281610ae6565b82525050565b6108d181610ad9565b82525050565b60006108e482848661076e565b91508190509392505050565b60006020820190506109056000830184610732565b92915050565b6000602082019050818103600083015261092481610793565b9050919050565b60006020820190508181036000830152610944816107f9565b9050919050565b6000602082019050818103600083015261096481610839565b9050919050565b6000602082019050818103600083015261098481610879565b9050919050565b60006020820190506109a060008301846108b9565b92915050565b60006020820190506109bb60008301846108c8565b92915050565b60006060820190506109d660008301876108c8565b6109e360208301866108c8565b81810360408301526109f6818486610741565b905095945050505050565b60008083356001602003843603038112610a1a57600080fd5b80840192508235915067ffffffffffffffff821115610a3857600080fd5b602083019250600182023603831315610a5057600080fd5b509250929050565b6000604051905081810181811067ffffffffffffffff82111715610a7b57600080fd5b8060405250919050565b600067ffffffffffffffff821115610a9c57600080fd5b601f19601f8301169050602081019050919050565b600082825260208201905092915050565b600081905092915050565b60008115159050919050565b600060ff82169050919050565b6000610af182610ad9565b9050919050565b82818337600083830152505050565b6000601f19601f8301169050919050565b610b2181610ad9565b8114610b2c57600080fd5b5056fea264697066735822122079d4c348f77addf4b9f7ee96f6c2779d19ab095ff1b7c68b175d140e3b76d70264736f6c63430007000033",
    "source": "// SPDX-License-Identifier: UNLICENSED\npragma solidity >=0.7.0;\npragma experimental ABIEncoderV2;\nimport \"@openzeppelin/contracts/access/Ownable.sol\";\n\ncontract USElection {\n    uint8 public constant BIDEN = 1;\n    uint8 public constant TRUMP = 2;\n\n    bool public electionEnded;\n\n    mapping(uint8 => uint8) public seats;\n    mapping(string => bool) public resultsSubmitted;\n\n    struct StateResult {\n        string name;\n        uint256 votesBiden;\n        uint256 votesTrump;\n        uint8 stateSeats;\n    }\n\n    modifier onlyActiveElection() {\n        require(!electionEnded, \"The election has ended already\");\n        _;\n    }\n\n    function submitStateResult(StateResult calldata result)\n        public\n        onlyActiveElection\n    {\n        require(result.stateSeats > 0, \"States must have at least 1 seat\");\n        require(\n            result.votesBiden != result.votesTrump,\n            \"There cannot be a tie\"\n        );\n        require(\n            !resultsSubmitted[result.name],\n            \"This state result was already submitted!\"\n        );\n\n        uint8 winner;\n        if (result.votesBiden > result.votesTrump) {\n            winner = BIDEN;\n        } else {\n            winner = TRUMP;\n        }\n\n        seats[winner] += result.stateSeats;\n        resultsSubmitted[result.name] = true;\n\n        emit LogStateResult(winner, result.stateSeats, result.name);\n    }\n\n    function currentLeader() public view returns (uint8) {\n        if (seats[BIDEN] > seats[TRUMP]) {\n            return BIDEN;\n        }\n        if (seats[TRUMP] > seats[BIDEN]) {\n            return TRUMP;\n        }\n        return 0;\n    }\n\n    event LogStateResult(uint8 winner, uint8 stateSeats, string state);\n    event LogElectionEnded(uint256 winner);\n\n    function endElection() public onlyActiveElection {\n        electionEnded = true;\n        emit LogElectionEnded(currentLeader());\n    }\n}\n",
    "sourcePath": "/Users/luboslavburdenski/Desktop/election/contracts/USElection.sol",
    "compiler": {
        "name": "solc",
        "version": "0.7.0+commit.9e61f92b.Emscripten.clang",
        "optimizer": false,
        "runs": 200
    },
    "schemaVersion": "2.3.5",
    "updatedAt": "2021-04-23T06:06:38.360Z"
}